{
  "contractName": "Reversi",
  "abi": [
    {
      "constant": true,
      "inputs": [
        {
          "name": "",
          "type": "address"
        }
      ],
      "name": "activePlayerNum",
      "outputs": [
        {
          "name": "",
          "type": "uint8"
        }
      ],
      "payable": false,
      "stateMutability": "view",
      "type": "function",
      "signature": "0x44f251f9"
    },
    {
      "constant": true,
      "inputs": [],
      "name": "activePlayer",
      "outputs": [
        {
          "name": "",
          "type": "address"
        }
      ],
      "payable": false,
      "stateMutability": "view",
      "type": "function",
      "signature": "0x7fdffd23"
    },
    {
      "constant": false,
      "inputs": [],
      "name": "createGame",
      "outputs": [
        {
          "name": "",
          "type": "uint8[]"
        }
      ],
      "payable": true,
      "stateMutability": "payable",
      "type": "function",
      "signature": "0x7255d729"
    },
    {
      "constant": false,
      "inputs": [],
      "name": "joinGame",
      "outputs": [],
      "payable": true,
      "stateMutability": "payable",
      "type": "function",
      "signature": "0xd4f77b1c"
    },
    {
      "constant": false,
      "inputs": [
        {
          "name": "_board",
          "type": "uint8[]"
        }
      ],
      "name": "setPieces",
      "outputs": [],
      "payable": false,
      "stateMutability": "nonpayable",
      "type": "function",
      "signature": "0x87eb94b3"
    },
    {
      "constant": true,
      "inputs": [],
      "name": "getPieces",
      "outputs": [
        {
          "name": "",
          "type": "uint8[]"
        }
      ],
      "payable": false,
      "stateMutability": "view",
      "type": "function",
      "signature": "0xcf615f6c"
    },
    {
      "constant": false,
      "inputs": [],
      "name": "payBack",
      "outputs": [],
      "payable": true,
      "stateMutability": "payable",
      "type": "function",
      "signature": "0x019f64cc"
    },
    {
      "constant": false,
      "inputs": [],
      "name": "setActivePlayer",
      "outputs": [],
      "payable": false,
      "stateMutability": "nonpayable",
      "type": "function",
      "signature": "0x3e1689af"
    },
    {
      "constant": true,
      "inputs": [],
      "name": "getActivePlayerNum",
      "outputs": [
        {
          "name": "",
          "type": "uint8"
        }
      ],
      "payable": false,
      "stateMutability": "view",
      "type": "function",
      "signature": "0x77a7bd28"
    }
  ],
  "bytecode": "0x6080604052604080519080825280602002602001820160405280156100335781602001602082028038833980820191505090505b5060039080519060200190610049929190610077565b506000600660006101000a81548160ff02191690831515021790555034801561007157600080fd5b5061014e565b82805482825590600052602060002090601f0160209004810192821561010d5791602002820160005b838211156100de57835183826101000a81548160ff021916908360ff16021790555092602001926001016020816000010492830192600103026100a0565b801561010b5782816101000a81549060ff02191690556001016020816000010492830192600103026100de565b505b50905061011a919061011e565b5090565b61014b91905b8082111561014757600081816101000a81549060ff021916905550600101610124565b5090565b90565b610fff806200015e6000396000f3fe608060405260043610610099576000357c0100000000000000000000000000000000000000000000000000000000900463ffffffff168063019f64cc1461009e5780633e1689af146100a857806344f251f9146100bf5780637255d7291461012a57806377a7bd28146101895780637fdffd23146101ba57806387eb94b314610211578063cf615f6c146102d6578063d4f77b1c14610342575b600080fd5b6100a661034c565b005b3480156100b457600080fd5b506100bd6106f7565b005b3480156100cb57600080fd5b5061010e600480360360208110156100e257600080fd5b81019080803573ffffffffffffffffffffffffffffffffffffffff169060200190929190505050610870565b604051808260ff1660ff16815260200191505060405180910390f35b610132610890565b6040518080602001828103825283818151815260200191508051906020019060200280838360005b8381101561017557808201518184015260208101905061015a565b505050509050019250505060405180910390f35b34801561019557600080fd5b5061019e610bc9565b604051808260ff1660ff16815260200191505060405180910390f35b3480156101c657600080fd5b506101cf610c1d565b604051808273ffffffffffffffffffffffffffffffffffffffff1673ffffffffffffffffffffffffffffffffffffffff16815260200191505060405180910390f35b34801561021d57600080fd5b506102d46004803603602081101561023457600080fd5b810190808035906020019064010000000081111561025157600080fd5b82018360208201111561026357600080fd5b8035906020019184602083028401116401000000008311171561028557600080fd5b919080806020026020016040519081016040528093929190818152602001838360200280828437600081840152601f19601f820116905080830192505050505050509192919290505050610c43565b005b3480156102e257600080fd5b506102eb610d32565b6040518080602001828103825283818151815260200191508051906020019060200280838360005b8381101561032e578082015181840152602081019050610313565b505050509050019250505060405180910390f35b61034a610db0565b005b60011515600660009054906101000a900460ff16151514151561036e57600080fd5b6000809050600080905060008090505b6003805490508160ff16101561042857600160038260ff168154811015156103a257fe5b90600052602060002090602091828204019190069054906101000a900460ff1660ff1614156103d65760018301925061041b565b600160038260ff168154811015156103ea57fe5b90600052602060002090602091828204019190069054906101000a900460ff1660ff16141561041a576001820191505b5b808060010191505061037e565b50604081830160ff1614151561043d57600080fd5b6000809054906101000a900473ffffffffffffffffffffffffffffffffffffffff1673ffffffffffffffffffffffffffffffffffffffff163373ffffffffffffffffffffffffffffffffffffffff1614801561049e57508060ff168260ff16115b1561050c573373ffffffffffffffffffffffffffffffffffffffff166108fc6002549081150290604051600060405180830381858888f193505050501580156104eb573d6000803e3d6000fd5b506000600660006101000a81548160ff0219169083151502179055506106f3565b600160009054906101000a900473ffffffffffffffffffffffffffffffffffffffff1673ffffffffffffffffffffffffffffffffffffffff163373ffffffffffffffffffffffffffffffffffffffff1614801561056e57508060ff168260ff16105b156105dc573373ffffffffffffffffffffffffffffffffffffffff166108fc6002549081150290604051600060405180830381858888f193505050501580156105bb573d6000803e3d6000fd5b506000600660006101000a81548160ff0219169083151502179055506106f2565b8060ff168260ff1614156106f1576000809054906101000a900473ffffffffffffffffffffffffffffffffffffffff1673ffffffffffffffffffffffffffffffffffffffff166108fc6002805481151561063257fe5b049081150290604051600060405180830381858888f1935050505015801561065e573d6000803e3d6000fd5b50600160009054906101000a900473ffffffffffffffffffffffffffffffffffffffff1673ffffffffffffffffffffffffffffffffffffffff166108fc600280548115156106a857fe5b049081150290604051600060405180830381858888f193505050501580156106d4573d6000803e3d6000fd5b506000600660006101000a81548160ff0219169083151502179055505b5b5b5050565b6000809054906101000a900473ffffffffffffffffffffffffffffffffffffffff1673ffffffffffffffffffffffffffffffffffffffff163373ffffffffffffffffffffffffffffffffffffffff1614156107b457600160009054906101000a900473ffffffffffffffffffffffffffffffffffffffff16600460006101000a81548173ffffffffffffffffffffffffffffffffffffffff021916908373ffffffffffffffffffffffffffffffffffffffff16021790555061086e565b600160009054906101000a900473ffffffffffffffffffffffffffffffffffffffff1673ffffffffffffffffffffffffffffffffffffffff163373ffffffffffffffffffffffffffffffffffffffff16141561086d576000809054906101000a900473ffffffffffffffffffffffffffffffffffffffff16600460006101000a81548173ffffffffffffffffffffffffffffffffffffffff021916908373ffffffffffffffffffffffffffffffffffffffff1602179055505b5b565b60056020528060005260406000206000915054906101000a900460ff1681565b606060001515600660009054906101000a900460ff1615151415156108b457600080fd5b6001600660006101000a81548160ff021916908315150217905550336000806101000a81548173ffffffffffffffffffffffffffffffffffffffff021916908373ffffffffffffffffffffffffffffffffffffffff160217905550346002600082825401925050819055506001600560008060009054906101000a900473ffffffffffffffffffffffffffffffffffffffff1673ffffffffffffffffffffffffffffffffffffffff1673ffffffffffffffffffffffffffffffffffffffff16815260200190815260200160002060006101000a81548160ff021916908360ff1602179055506000809054906101000a900473ffffffffffffffffffffffffffffffffffffffff16600460006101000a81548173ffffffffffffffffffffffffffffffffffffffff021916908373ffffffffffffffffffffffffffffffffffffffff16021790555060008090505b6003805490508160ff161015610a5c57600060038260ff16815481101515610a2557fe5b90600052602060002090602091828204019190066101000a81548160ff021916908360ff1602179055508080600101915050610a01565b5060026003601b815481101515610a6f57fe5b90600052602060002090602091828204019190066101000a81548160ff021916908360ff16021790555060016003601c815481101515610aab57fe5b90600052602060002090602091828204019190066101000a81548160ff021916908360ff160217905550600160036023815481101515610ae757fe5b90600052602060002090602091828204019190066101000a81548160ff021916908360ff160217905550600260036024815481101515610b2357fe5b90600052602060002090602091828204019190066101000a81548160ff021916908360ff1602179055506003805480602002602001604051908101604052809291908181526020018280548015610bbf57602002820191906000526020600020906000905b82829054906101000a900460ff1660ff1681526020019060010190602082600001049283019260010382029150808411610b885790505b5050505050905090565b6000600560003373ffffffffffffffffffffffffffffffffffffffff1673ffffffffffffffffffffffffffffffffffffffff16815260200190815260200160002060009054906101000a900460ff16905090565b600460009054906101000a900473ffffffffffffffffffffffffffffffffffffffff1681565b60011515600660009054906101000a900460ff161515141515610c6557600080fd5b6000809054906101000a900473ffffffffffffffffffffffffffffffffffffffff1673ffffffffffffffffffffffffffffffffffffffff163373ffffffffffffffffffffffffffffffffffffffff161480610d0d5750600160009054906101000a900473ffffffffffffffffffffffffffffffffffffffff1673ffffffffffffffffffffffffffffffffffffffff163373ffffffffffffffffffffffffffffffffffffffff16145b1515610d1857600080fd5b8060039080519060200190610d2e929190610efc565b5050565b60606003805480602002602001604051908101604052809291908181526020018280548015610da657602002820191906000526020600020906000905b82829054906101000a900460ff1660ff1681526020019060010190602082600001049283019260010382029150808411610d6f5790505b5050505050905090565b60011515600660009054906101000a900460ff161515141515610dd257600080fd5b3373ffffffffffffffffffffffffffffffffffffffff166000809054906101000a900473ffffffffffffffffffffffffffffffffffffffff1673ffffffffffffffffffffffffffffffffffffffff1614151515610e2e57600080fd5b33600160006101000a81548173ffffffffffffffffffffffffffffffffffffffff021916908373ffffffffffffffffffffffffffffffffffffffff160217905550600260056000600160009054906101000a900473ffffffffffffffffffffffffffffffffffffffff1673ffffffffffffffffffffffffffffffffffffffff1673ffffffffffffffffffffffffffffffffffffffff16815260200190815260200160002060006101000a81548160ff021916908360ff16021790555034600260008282540192505081905550565b82805482825590600052602060002090601f01602090048101928215610f925791602002820160005b83821115610f6357835183826101000a81548160ff021916908360ff1602179055509260200192600101602081600001049283019260010302610f25565b8015610f905782816101000a81549060ff0219169055600101602081600001049283019260010302610f63565b505b509050610f9f9190610fa3565b5090565b610fd091905b80821115610fcc57600081816101000a81549060ff021916905550600101610fa9565b5090565b9056fea165627a7a72305820748b938e7a9dd7b6a11a29a95fb4a6792f2df651a17426f8fd157de82c8c551e0029",
  "source": "\npragma solidity >=0.5.0 <0.6.0;\n\ncontract Reversi {\n    address payable player1;\n    address payable player2;\n    uint deposit;\n    uint8[] board = new uint8[](64);\n    address public activePlayer;\n    mapping (address => uint8) public activePlayerNum;\n    bool gameActive = false;\n\n  function createGame() public payable returns (uint8[] memory) {\n    require(gameActive == false);\n    gameActive = true;\n    player1 = msg.sender;\n    deposit += msg.value;\n\n    activePlayerNum[player1] = 1;\n    activePlayer = player1;\n\n    // initialize the board\n    for(uint8 i = 0; i < board.length; i++){\n        board[i] = 0;\n    }\n    board[27] = 2;\n    board[28] = 1;\n    board[35] = 1;\n    board[36] = 2;\n    return board;\n  }\n\n  function joinGame()public payable {\n      require(gameActive == true);\n      require(player1 != msg.sender);\n      player2 = msg.sender;\n      activePlayerNum[player2] = 2;\n      deposit += msg.value;\n  }\n\n  function setPieces(uint8[] memory _board) public {\n      require(gameActive == true);\n      require(msg.sender == player1 || msg.sender == player2);\n      board = _board;\n  }\n\n  function getPieces() public view returns (uint8[] memory){\n      return board;\n  }\n\n  function payBack()public payable {\n      require(gameActive == true);\n      uint8 counterForOne = 0;\n      uint8 counterForTwo = 0;\n      for(uint8 i = 0; i < board.length; i++){\n          if (board[i] == 1){\n              counterForOne += 1;\n          }else if((board[i] == 1)){\n              counterForTwo += 1;\n          }\n      }\n\n      require(counterForOne + counterForTwo == 64);\n\n      if(msg.sender == player1 && counterForOne > counterForTwo){\n          msg.sender.transfer(deposit);\n          gameActive = false;\n      } else if (msg.sender == player2 && counterForOne < counterForTwo){\n          msg.sender.transfer(deposit);\n          gameActive = false;\n      }else if (counterForOne == counterForTwo){\n          player1.transfer(deposit/2);\n          player2.transfer(deposit/2);\n          gameActive = false;\n      }\n\n  }\n\n  function setActivePlayer() public {\n      if(msg.sender == player1){\n          activePlayer = player2;\n      }else if(msg.sender == player2){\n          activePlayer = player1;\n      }\n\n  }\n\n  function getActivePlayerNum() public view returns (uint8) {\n      return activePlayerNum[msg.sender];\n  }\n\n\n}\n",
  "sourcePath": "/Users/akira/ethereum/dapps/Reversi/contracts/Reversi.sol",
  "compiler": {
    "name": "solc",
    "version": "0.5.0+commit.1d4f565a.Emscripten.clang"
  },
  "schemaVersion": "3.0.2",
  "updatedAt": "2019-04-07T18:36:21.629Z",
  "devdoc": {
    "methods": {}
  },
  "userdoc": {
    "methods": {}
  }
}