{
  "contractName": "Reversi",
  "abi": [
    {
      "anonymous": false,
      "inputs": [
        {
          "indexed": false,
          "name": "board",
          "type": "uint8[]"
        }
      ],
      "name": "SetPiece",
      "type": "event"
    },
    {
      "constant": false,
      "inputs": [],
      "name": "createGame",
      "outputs": [
        {
          "name": "",
          "type": "uint8[]"
        }
      ],
      "payable": true,
      "stateMutability": "payable",
      "type": "function"
    },
    {
      "constant": false,
      "inputs": [],
      "name": "joinGame",
      "outputs": [],
      "payable": true,
      "stateMutability": "payable",
      "type": "function"
    },
    {
      "constant": false,
      "inputs": [
        {
          "name": "_board",
          "type": "uint8[]"
        }
      ],
      "name": "setPieces",
      "outputs": [],
      "payable": false,
      "stateMutability": "nonpayable",
      "type": "function"
    },
    {
      "constant": true,
      "inputs": [],
      "name": "getPieces",
      "outputs": [
        {
          "name": "",
          "type": "uint8[]"
        }
      ],
      "payable": false,
      "stateMutability": "view",
      "type": "function"
    },
    {
      "constant": false,
      "inputs": [],
      "name": "payBack",
      "outputs": [],
      "payable": true,
      "stateMutability": "payable",
      "type": "function"
    }
  ],
  "bytecode": "0x6080604052604080519080825280602002602001820160405280156100335781602001602082028038833980820191505090505b506003908051906020019061004992919061005c565b5034801561005657600080fd5b50610133565b82805482825590600052602060002090601f016020900481019282156100f25791602002820160005b838211156100c357835183826101000a81548160ff021916908360ff1602179055509260200192600101602081600001049283019260010302610085565b80156100f05782816101000a81549060ff02191690556001016020816000010492830192600103026100c3565b505b5090506100ff9190610103565b5090565b61013091905b8082111561012c57600081816101000a81549060ff021916905550600101610109565b5090565b90565b6109a8806101426000396000f3fe60806040526004361061006d576000357c0100000000000000000000000000000000000000000000000000000000900463ffffffff168063019f64cc146100725780637255d7291461007c57806387eb94b3146100db578063cf615f6c146101a0578063d4f77b1c1461020c575b600080fd5b61007a610216565b005b6100846104a3565b6040518080602001828103825283818151815260200191508051906020019060200280838360005b838110156100c75780820151818401526020810190506100ac565b505050509050019250505060405180910390f35b3480156100e757600080fd5b5061019e600480360360208110156100fe57600080fd5b810190808035906020019064010000000081111561011b57600080fd5b82018360208201111561012d57600080fd5b8035906020019184602083028401116401000000008311171561014f57600080fd5b919080806020026020016040519081016040528093929190818152602001838360200280828437600081840152601f19601f8201169050808301925050505050505091929192905050506106c3565b005b3480156101ac57600080fd5b506101b5610778565b6040518080602001828103825283818151815260200191508051906020019060200280838360005b838110156101f85780820151818401526020810190506101dd565b505050509050019250505060405180910390f35b6102146107f6565b005b6000809050600080905060008090505b6003805490508160ff1610156102d057600160038260ff1681548110151561024a57fe5b90600052602060002090602091828204019190069054906101000a900460ff1660ff16141561027e576001830192506102c3565b600160038260ff1681548110151561029257fe5b90600052602060002090602091828204019190069054906101000a900460ff1660ff1614156102c2576001820191505b5b8080600101915050610226565b506000809054906101000a900473ffffffffffffffffffffffffffffffffffffffff1673ffffffffffffffffffffffffffffffffffffffff163373ffffffffffffffffffffffffffffffffffffffff1614801561033257508060ff168260ff16115b15610385573373ffffffffffffffffffffffffffffffffffffffff166108fc6002549081150290604051600060405180830381858888f1935050505015801561037f573d6000803e3d6000fd5b5061049f565b600160009054906101000a900473ffffffffffffffffffffffffffffffffffffffff1673ffffffffffffffffffffffffffffffffffffffff163373ffffffffffffffffffffffffffffffffffffffff161480156103e757508060ff168260ff16105b1561043a573373ffffffffffffffffffffffffffffffffffffffff166108fc6002549081150290604051600060405180830381858888f19350505050158015610434573d6000803e3d6000fd5b5061049e565b8060ff168260ff16141561049d573373ffffffffffffffffffffffffffffffffffffffff166108fc6002805481151561046f57fe5b049081150290604051600060405180830381858888f1935050505015801561049b573d6000803e3d6000fd5b505b5b5b5050565b6060336000806101000a81548173ffffffffffffffffffffffffffffffffffffffff021916908373ffffffffffffffffffffffffffffffffffffffff1602179055503460026000828254019250508190555060008090505b6003805490508160ff16101561055657600060038260ff1681548110151561051f57fe5b90600052602060002090602091828204019190066101000a81548160ff021916908360ff16021790555080806001019150506104fb565b5060026003601b81548110151561056957fe5b90600052602060002090602091828204019190066101000a81548160ff021916908360ff16021790555060016003601c8154811015156105a557fe5b90600052602060002090602091828204019190066101000a81548160ff021916908360ff1602179055506001600360238154811015156105e157fe5b90600052602060002090602091828204019190066101000a81548160ff021916908360ff16021790555060026003602481548110151561061d57fe5b90600052602060002090602091828204019190066101000a81548160ff021916908360ff16021790555060038054806020026020016040519081016040528092919081815260200182805480156106b957602002820191906000526020600020906000905b82829054906101000a900460ff1660ff16815260200190600101906020826000010492830192600103820291508084116106825790505b5050505050905090565b80600390805190602001906106d99291906108a5565b507ed463c89fc27acac76013d7b44f3cac841b8d35ee7289a996f39327219f0fce60036040518080602001828103825283818154815260200191508054801561076757602002820191906000526020600020906000905b82829054906101000a900460ff1660ff16815260200190600101906020826000010492830192600103820291508084116107305790505b50509250505060405180910390a150565b606060038054806020026020016040519081016040528092919081815260200182805480156107ec57602002820191906000526020600020906000905b82829054906101000a900460ff1660ff16815260200190600101906020826000010492830192600103820291508084116107b55790505b5050505050905090565b3373ffffffffffffffffffffffffffffffffffffffff166000809054906101000a900473ffffffffffffffffffffffffffffffffffffffff1673ffffffffffffffffffffffffffffffffffffffff161415151561085257600080fd5b33600160006101000a81548173ffffffffffffffffffffffffffffffffffffffff021916908373ffffffffffffffffffffffffffffffffffffffff16021790555034600260008282540192505081905550565b82805482825590600052602060002090601f0160209004810192821561093b5791602002820160005b8382111561090c57835183826101000a81548160ff021916908360ff16021790555092602001926001016020816000010492830192600103026108ce565b80156109395782816101000a81549060ff021916905560010160208160000104928301926001030261090c565b505b509050610948919061094c565b5090565b61097991905b8082111561097557600081816101000a81549060ff021916905550600101610952565b5090565b9056fea165627a7a72305820b0bc45a9dab08539e442c8c91b1c2eba52535528f547f36d01a2f6b2d3425e890029",
  "source": "\npragma solidity >=0.5.0 <0.6.0;\n\ncontract Reversi {\n    address player1;\n    address player2;\n    uint deposit;\n    uint8[] board = new uint8[](64);\n\n    event SetPiece(uint8[] board);\n\n  function createGame() public payable returns (uint8[] memory) {\n    player1 = msg.sender;\n    deposit += msg.value;\n\n    // initialize the board\n    for(uint8 i = 0; i < board.length; i++){\n        board[i] = 0;\n    }\n    board[27] = 2;\n    board[28] = 1;\n    board[35] = 1;\n    board[36] = 2;\n    return board;\n  }\n\n  function joinGame()public payable {\n      require(player1 != msg.sender);\n      player2 = msg.sender;\n      deposit += msg.value;\n  }\n\n  function setPieces(uint8[] memory _board) public {\n      board = _board;\n      emit SetPiece(board);\n  }\n\n  function getPieces() public view returns (uint8[] memory){\n      return board;\n  }\n\n  function payBack()public payable {\n      uint8 counterForOne = 0;\n      uint8 counterForTwo = 0;\n      for(uint8 i = 0; i < board.length; i++){\n          if (board[i] == 1){\n              counterForOne += 1;\n          }else if((board[i] == 1)){\n              counterForTwo += 1;\n          }\n      }\n\n      if(msg.sender == player1 && counterForOne > counterForTwo){\n          msg.sender.transfer(deposit);\n      } else if (msg.sender == player2 && counterForOne < counterForTwo){\n          msg.sender.transfer(deposit);\n      }else if (counterForOne == counterForTwo){\n          msg.sender.transfer(deposit/2);\n      }\n\n  }\n\n\n}\n",
  "sourcePath": "/Users/akira/ethereum/dapps/Reversi/contracts/Reversi.sol",
  "compiler": {
    "name": "solc",
    "version": "0.5.0+commit.1d4f565a.Emscripten.clang"
  },
  "schemaVersion": "3.0.2",
  "updatedAt": "2019-04-03T18:30:03.110Z",
  "devdoc": {
    "methods": {}
  },
  "userdoc": {
    "methods": {}
  }
}